:020000040000FA
:100000000C945E000C9486000C9486000C94860080
:100010000C9486000C9486000C9486000C94860048
:100020000C9486000C9486000C9486000C940004BA
:100030000C9486000C9486000C9486000C94860028
:100040000C945E030C9486000C94CE030C94A803CD
:100050000C9486000C9486000C9486000C94860008
:100060000C9486000C948600000000080002010039
:100070000003040700000000000000000000000072
:10008000250028002B0000000000240027002A0083
:10009000040404040404040402020202020203032E
:1000A0000303030301020408102040800102040836
:1000B0001020010204081020BC046F0711241FBE89
:1000C000CFEFD8E0DEBFCDBF11E0A0E0B1E0EAEBBA
:1000D000F4E102C005900D92A032B107D9F722E0F9
:1000E000A0E2B1E001C01D92A930B207E1F710E033
:1000F000CDE5D0E004C02197FE010E944D08CC352B
:10010000D107C9F70E944A050C94500A0C940000CC
:100110000895AF92BF92CF92DF92EF92FF920F932A
:100120001F93CF93DF936C017B018B01040F151F8D
:10013000EB015E01AE18BF08C017D10759F06991F5
:10014000D601ED91FC910190F081E02DC601099559
:10015000892B79F7C501DF91CF911F910F91FF9006
:10016000EF90DF90CF90BF90AF900895FC01538D3A
:10017000448D252F30E0842F90E0821B930B541781
:1001800010F0CF96089501970895FC01918D828D0E
:10019000981761F0A28DAE0FBF2FB11D5D968C91A7
:1001A000928D9F5F9F73928F90E008958FEF9FEFE6
:1001B00008952FB7F8948091270190912801A0917C
:1001C0002901B0912A012FBF80933301909334010C
:1001D000A0933501B09336018BE291E00E94C500F7
:1001E00097FF26C02FB7F89480912701909128019E
:1001F000A0912901B0912A012FBF40913301509164
:1002000034016091350170913601841B950BA60B6A
:10021000B70B40912F0150913001609131017091E5
:10022000320184179507A607B707B0F28FEF9FEF4B
:100230000895FC01918D828D981731F0828DE80F21
:10024000F11D858D90E008958FEF9FEF0895FC01DB
:10025000918D228D892F90E0805C9F4F821B9109A8
:100260008F73992708958BE291E00E94270121E086
:10027000892B09F420E0822F089580E090E0892BFB
:1002800029F00E94330181110C9400000895FC01B3
:10029000A48DA80FB92FB11DA35ABF4F2C91848DE7
:1002A00090E001968F739927848FA689B7892C9344
:1002B000A089B1898C91837080648C93938D848D97
:1002C000981306C00288F389E02D80818F7D80839A
:1002D0000895EF92FF920F931F93CF93DF93EC015A
:1002E00081E0888F9B8D8C8D98131AC0E889F989DD
:1002F000808185FF15C09FB7F894EE89FF896083E0
:10030000E889F98980818370806480839FBF81E060
:1003100090E0DF91CF911F910F91FF90EF900895A2
:10032000F62E0B8D10E00F5F1F4F0F731127E02E7D
:100330008C8D8E110CC00FB607FCFACFE889F989B5
:10034000808185FFF5CFCE010E944701F1CFEB8D73
:10035000EC0FFD2FF11DE35AFF4FF0829FB7F89489
:100360000B8FEA89FB8980818062CFCFCF93DF93A7
:10037000EC01888D8823B9F0AA89BB89E889F989BD
:100380008C9185FD03C0808186FD0DC00FB607FCF2
:10039000F7CF8C9185FFF2CF808185FFEDCFCE0125
:1003A0000E944701E9CFDF91CF91089590E0FC01D1
:1003B000E859FF4F2491FC01EC55FF4F3491FC01AB
:1003C000E057FF4FE491EE23C9F0222339F02330A8
:1003D00001F1A8F4213019F1223029F1F0E0EE0FFB
:1003E000FF1FE458FF4FA591B4918FB7F894EC919B
:1003F000611126C030953E233C938FBF089527306E
:10040000A9F02830C9F0243049F7809180008F7D11
:1004100003C0809180008F7780938000DFCF84B508
:100420008F7784BDDBCF84B58F7DFBCF8091B0000B
:100430008F778093B000D2CF8091B0008F7DF9CFBD
:100440003E2BDACFDC01EC91EC3090F511968C91DB
:10045000119728E830E0281B310987FD3395220FDA
:10046000331F220F331F6217730784F012968C918B
:1004700028E532E0281B310987FD3395220F331F11
:10048000220F331F621773070CF49B0122503109AE
:10049000220F331F4FB7F8948E2F90E0FC01EE0F20
:1004A000FF1FE80FF91FE853FE4F328321834FBF30
:1004B0000895CF92DF92EF92FF92CF93DF93EC01FA
:1004C000898198E8C92ED12CC81AD10887FDD39408
:1004D000CC0CDD1CCC0CDD1C0D2C000CEE08FF0838
:1004E0008A8128E532E0281B310987FD3395220FE8
:1004F000331F220F331F032E000C440B550B2C19F6
:100500003D094E095F09AAE5B0E00E94CE0724EB41
:1005100030E040E050E00E94AF07CA01B9016C0D25
:100520007D1D8E1D9F1DCE01DF91CF91FF90EF901D
:10053000DF90CF900C942202FC0180819181009782
:1005400011F00C94EF0808950F931F93CF93DF934E
:10055000EC0188819981009759F02A813B81261707
:10056000370730F081E0DF91CF911F910F9108950F
:100570008B016F5F7F4F0E947809009759F0998334
:1005800088831B830A832C813D81232B59F7FC012F
:100590001082E8CF80E0E7CFEF92FF920F931F9396
:1005A000CF93DF93EC017B018A01BA010E94A40280
:1005B00028813981811114C02115310519F0C90133
:1005C0000E94EF08198218821D821C821B821A82E7
:1005D000CE01DF91CF911F910F91FF90EF90089581
:1005E0001D830C83B701C9010E94490AF1CFAF9264
:1005F000BF92CF92DF92EF92FF920F931F93CF9310
:10060000DF93EC016B015A0179012417350720F4BF
:100610008B2D5901E42EF82E198218821B821A8222
:100620001D821C8250E040E06EE171E0CE010E942C
:10063000CC02D60114960D911C91A016B10628F596
:10064000E016F10608F48701D601ED91FC911197AF
:10065000E00FF11FF08010826D917C916A0D7B1D7F
:1006600061157105F1F0FB0101900020E9F7319768
:10067000AF01461B570BCE010E94CC02F6018081D0
:100680009181080F191FD801FC92CE01DF91CF9103
:100690001F910F91FF90EF90DF90CF90BF90AF90A0
:1006A000089588819981009711F00E94EF081982BE
:1006B00018821D821C821B821A82E0CF1F920F9229
:1006C0000FB60F9211242F933F938F939F93AF9365
:1006D000BF938091270190912801A0912901B091A9
:1006E0002A013091260123E0230F2D3758F501967A
:1006F000A11DB11D2093260180932701909328010D
:10070000A0932901B0932A018091220190912301A5
:10071000A0912401B09125010196A11DB11D8093E6
:10072000220190932301A0932401B0932501BF914E
:10073000AF919F918F913F912F910F900FBE0F908E
:100740001F90189526E8230F0296A11DB11DD2CF48
:100750001F920F920FB60F9211242F933F934F9336
:100760005F936F937F938F939F93AF93BF93EF9319
:10077000FF938BE291E00E944701FF91EF91BF91BF
:10078000AF919F918F917F916F915F914F913F9129
:100790002F910F900FBE0F901F9018951F920F92E0
:1007A0000FB60F9211242F938F939F93EF93FF9384
:1007B000E0913B01F0913C018081E0914101F09199
:1007C000420182FD1BC09081809144018F5F8F7335
:1007D00020914501821741F0E0914401F0E0E55D90
:1007E000FE4F958F80934401FF91EF919F918F91E0
:1007F0002F910F900FBE0F901F9018958081F4CF0E
:100800001F920F920FB60F9211242F933F934F9385
:100810005F936F937F938F939F93AF93BF93CF9388
:10082000DF93EF93FF9380912001C091EC01D0E022
:1008300087FF24C0109285001092840080912001CF
:100840008F5F8093200180912001082E000C990B6E
:100850008C179D0724F4809120018C30C4F1809185
:10086000840090918500049680349C4908F47AC0F5
:100870008091840090918500049676C0809120013B
:10088000082E000C990B8C179D07C4F6E0912001EF
:100890008E2FEE0F990BFC01EE0FFF1FE80FF91FD3
:1008A000E853FE4F808186FFC9CFE09120018E2F53
:1008B000EE0F990BFC01EE0FFF1FE80FF91FE85335
:1008C000FE4F808160E08F730E94D601B7CF2091E8
:1008D000840030918500E09120018E2FEE0F990B5E
:1008E000FC01EE0FFF1FE80FF91FE853FE4F818157
:1008F0009281820F931F9093890080938800E091EA
:1009000020018E2FEE0F990BFC01EE0FFF1FE80F59
:10091000F91FE853FE4F808186FF11C0E09120014E
:100920008E2FEE0F990BFC01EE0FFF1FE80FF91F42
:10093000E853FE4F808161E08F730E94D601FF91E2
:10094000EF91DF91CF91BF91AF919F918F917F9167
:100950006F915F914F913F912F910F900FBE0F902C
:100960001F90189580E49CE99093890080938800FB
:100970008FEF80932001E3CF10922E0110922D0172
:1009800088EE93E0A0E0B0E080932F0190933001D7
:10099000A0933101B093320180E191E090932C015A
:1009A00080932B0185EC90E0909338018093370180
:1009B00084EC90E090933A018093390180EC90E0D0
:1009C00090933C0180933B0181EC90E090933E0139
:1009D00080933D0182EC90E09093400180933F0131
:1009E00086EC90E090934201809341011092440183
:1009F000109245011092460110924701E3EFF1E099
:100A000028EB3BE04FEF8091EC018C30F8F0408315
:100A10008091EC018C3060F14383369682E0E530C2
:100A2000F80789F71092EE011092ED011092F00193
:100A30001092EF011092F2011092F10150E040E0AB
:100A40006EE171E08DEE91E00C94CC0291E0980F94
:100A50009093EC01808390E0DC01AA0FBB1FA80FEC
:100A6000B91FA853BE4F12963C932E931197D0CF27
:100A700091E0980F9093EC01838390E0DC01AA0F42
:100A8000BB1FA80FB91FA853BE4F12963C932E93BD
:100A90001197C3CFCF93DF93CDB7DEB72C970FB6A7
:100AA000F894DEBF0FBECDBF789484B5826084BD5C
:100AB00084B5816084BD85B5826085BD85B5816062
:100AC00085BD80916E00816080936E0010928100E0
:100AD000809181008260809381008091810081609B
:100AE000809381008091800081608093800080915C
:100AF000B10084608093B1008091B00081608093E8
:100B0000B00080917A00846080937A0080917A00AE
:100B1000826080937A0080917A00816080937A006D
:100B200080917A00806880937A001092C10046E03C
:100B300051E023EF31E0FCE0FF2EA2E0EA2ED901E4
:100B400010E000E08C918C3008F072C0FA01E00FE8
:100B5000F11F7081872F90E0FC01EC55FF4F6491ED
:100B6000FC01E057FF4FE491EE23A9F08E2F90E0B7
:100B7000880F991FFC01EA57FF4FC590D490FC01E4
:100B8000E458FF4F859194918FB7F894F6019081C6
:100B9000692B60838FBF8C91C82ED12CF601EE0F8C
:100BA000FF1FEC0DFD1DE853FE4F972F9F737081C3
:100BB000707C792B708311961C92119712961C925F
:100BC00012976F2D0E9441088F9D6001112470E0E3
:100BD00060E05601A60EB71EF501EE0FFF1FEA0DED
:100BE000FB1DE853FE4F908196FD15C06F5F7F4F50
:100BF0006C30710571F781110EC010928000E09287
:100C000081001092850010928400B19A80916F004B
:100C1000826080936F00EC918E2F90E0FC01EE0FCC
:100C2000FF1FE80FF91FE853FE4F80818064808327
:100C300013960130110509F09DC02A5F3F4F4E5FAA
:100C40005F4FF2E025303F0709F079CFE0913B019B
:100C5000F0913C0182E08083E0913701F09138010E
:100C60001082E0913901F0913A0180E18083109285
:100C70004301E0913F01F091400186E08083E091E3
:100C80003D01F0913E01808180618083E0913D01D2
:100C9000F0913E01808188608083E0913D01F09178
:100CA0003E01808180688083E0913D01F0913E01AA
:100CB00080818F7D80838AE090E0A0E0B0E0809327
:100CC0002F0190933001A0933101B093320183EF53
:100CD00091E00E94590289EF91E00E9459028FEF42
:100CE00091E00E94590286EF91E00E9459028CEF38
:100CF00091E00E94590282E092E00E94590220E0B5
:100D0000622E20E0722E8BE291E00E942701892B57
:100D100009F45BC01A8219821C821B821E821D820A
:100D200050E040E06EE171E0CE0101960E94CC02FD
:100D30000E94D90097FD21C08D349105F1F08F8379
:100D400018860D811E810F5F1F4FB801CE010196DD
:100D50000E94A402882361F329813A818D819E81BA
:100D6000BE01695F7F4F820F931F0E94490A1E8355
:100D70000D83DECF01E010E0E5CE8091ED01909192
:100D8000EE01009709F48CC069817A8161157105C3
:100D900009F484C04091EF015091F0012D813E8112
:100DA0004217530708F47AC00E94490A8D819E8138
:100DB0009093F2018093F1011E821D82CE01019673
:100DC0000E949C0281E0809321018091210188236F
:100DD00009F458C00091F1011091F20101151105BB
:100DE00071F0E090ED01F090EE016DE670E0C7016A
:100DF0000E943E0AAC014E195F09892B11F44FEF96
:100E00005FEF4F5F5F4F98016DEE71E0CE01079687
:100E10000E94F70293EFC92E91E0D92E10E000E076
:100E200056017801912C812C97012C5F3F4FA7012F
:100E3000BE01695F7F4FCE0101960E94F702898152
:100E40009A81009709F447C00E947307C5010E9468
:100E50002202CE0101960E949C0285E0E80EF11C60
:100E6000E3E0AE0EB11C8A94892889F5065F1F4F16
:100E700086E0C80ED11C0E31110591F6CE01079601
:100E80000E949C026114710409F43DCF0E94330159
:100E9000882309F434CF0E94000031CF0E94EF086C
:100EA00089819A819093EE018093ED018B819C81E1
:100EB0009093F0018093EF018D819E819093F201D8
:100EC0008093F1011A8219821C821B8275CF8824BB
:100ED0008394912CA9CF60E070E0CB01B7CF8DEE69
:100EE00091E00C949C021F93FC0199278827BC0178
:100EF000E89411911032E9F3193010F01E30C8F364
:100F00001B3251F01D3249F4689406C00E949A07C2
:100F1000610F711D811D911D119110531A30B0F395
:100F20003EF490958095709561957F4F8F4F9F4FC0
:100F30001F910895592F482F372F262F660F771F9F
:100F4000881F991F660F771F881F991F620F731FD5
:100F5000841F951F660F771F881F991F0895052E00
:100F600097FB1EF400940E94C60757FD07D00E940D
:100F7000100807FC03D04EF40C94C607509540951A
:100F8000309521953F4F4F4F5F4F08959095809535
:100F9000709561957F4F8F4F9F4F08950E94320843
:100FA000A59F900DB49F900DA49F800D911D1124BD
:100FB00008952F923F924F925F926F927F928F92FD
:100FC0009F92AF92BF92CF92DF92EF92FF920F93D8
:100FD0001F93CF93DF93CDB7DEB7CA1BDB0B0FB6E2
:100FE000F894DEBF0FBECDBF09942A88398848889F
:100FF0005F846E847D848C849B84AA84B984C88435
:10100000DF80EE80FD800C811B81AA81B981CE0F2B
:10101000D11D0FB6F894DEBF0FBECDBFED01089510
:10102000A1E21A2EAA1BBB1BFD010DC0AA1FBB1FEC
:10103000EE1FFF1FA217B307E407F50720F0A21B5E
:10104000B30BE40BF50B661F771F881F991F1A94CB
:1010500069F760957095809590959B01AC01BD01F5
:10106000CF010895A29FB001B39FC001A39F700D4F
:10107000811D1124911DB29F700D811D1124911DA0
:101080000895991B79E004C0991F961708F0961BE4
:10109000881F7A95C9F780950895EE0FFF1F059078
:1010A000F491E02D09940F931F93CF93DF93823037
:1010B000910510F482E090E0E0910702F0910802BF
:1010C00030E020E0B0E0A0E0309799F42115310540
:1010D00009F44AC0281B390B24303105D8F58A8120
:1010E0009B816115710589F1FB0193838283FE0168
:1010F00011C0408151810281138148175907E0F0E6
:101100004817590799F4109761F012960C931297AB
:1011100013961C933296CF01DF91CF911F910F91BF
:1011200008950093070210930802F4CF21153105AA
:1011300051F04217530738F0A901DB019A01BD01B4
:10114000DF01F801C1CFEF01F9CF9093080280933E
:101150000702CDCFFE01E20FF31F8193919322503E
:10116000310939832883D7CF2091050230910602B7
:10117000232B41F4209102013091030130930602A8
:1011800020930502209100013091010121153105C4
:1011900041F42DB73EB74091040150910501241B45
:1011A000350BE0910502F0910602E217F307A0F477
:1011B0002E1B3F0B2817390778F0AC014E5F5F4FAD
:1011C0002417350748F04E0F5F1F509306024093D7
:1011D0000502819391939FCFF0E0E0E09CCFCF9305
:1011E000DF930097E9F0FC01329713821282A091FD
:1011F0000702B0910802ED0130E020E01097A1F461
:1012000020813181820F931F2091050230910602C7
:101210002817390709F061C0F0930602E093050230
:10122000DF91CF910895EA01CE17DF07E8F54A81F3
:101230005B819E0141155105B1F7E901FB83EA830A
:1012400049915991C40FD51FEC17FD0761F48081B6
:1012500091810296840F951FE90199838883828189
:1012600093819B838A83F0E0E0E012968D919C91BC
:1012700013970097B9F52D913C911197CD010296E6
:10128000820F931F2091050230910602281739071B
:1012900039F6309751F51092080210920702B09378
:1012A0000602A0930502BCCFD383C2834081518143
:1012B000840F951FC817D90761F44E5F5F4F88816F
:1012C0009981480F591F518340838A819B81938361
:1012D00082832115310509F0B0CFF0930802E09325
:1012E00007029ECFFD01DC01C0CF13821282D7CF4F
:1012F000B0E0A0E0EEE7F9E00C94DB078C0100978A
:1013000051F4CB010E9453088C01C801CDB7DEB760
:10131000E0E10C94F707FC01E60FF71F9C01225057
:101320003109E217F30708F49DC0D901CD91DC9192
:101330001197C617D70798F0C530D10530F3CE0105
:1013400004978617970708F3C61BD70B2297C193FC
:10135000D1936D937C93CF010E94EF08D6CF5B01B0
:10136000AC1ABD0A4C018C0E9D1EA0910702B091D3
:101370000802512C412CF12CE12C109731F5809171
:101380000502909106028815990509F05CC0461681
:10139000570608F058C08091000190910101009714
:1013A00041F48DB79EB74091040150910501841B13
:1013B000950BE817F90708F055C0F0930602E09383
:1013C0000502F90171836083A0CF8D919C911197E3
:1013D00012966C90129713967C901397A815B905E6
:1013E00059F56C0142E0C40ED11CCA14DB0420F193
:1013F000AC014A195B09DA011296159780F06282F6
:10140000738251834083D9016D937C93E114F1047D
:1014100071F0D7011396FC93EE93129776CF229634
:101420008C0F9D1FF90191838083F301EFCFF0931F
:101430000802E093070269CF4816590608F42C0108
:101440007D01D3019ACFCB010E9453087C01009704
:1014500049F0AE01B8010E94350AC8010E94EF08A8
:10146000870153CF10E000E050CFFB01DC0102C048
:1014700001900D9241505040D8F70895FC018191A0
:10148000861721F08823D9F7992708953197CF013E
:101490000895FB01DC0101900D920020E1F7089511
:1014A00010E0CDE5D0E004C0FE010E944D08219679
:1014B000CE35D107C9F7F894FFCF000009028000AC
:1014C0000203040506070000000069018900B60058
:0A14D000B6012701C5001901000054
:107E0000112484B714BE81FFF0D085E080938100F7
:107E100082E08093C00088E18093C10086E0809377
:107E2000C20080E18093C4008EE0C9D0259A86E02C
:107E300020E33CEF91E0309385002093840096BBD3
:107E4000B09BFECF1D9AA8958150A9F7CC24DD24C4
:107E500088248394B5E0AB2EA1E19A2EF3E0BF2EE7
:107E6000A2D0813461F49FD0082FAFD0023811F036
:107E7000013811F484E001C083E08DD089C08234E0
:107E800011F484E103C0853419F485E0A6D080C0E4
:107E9000853579F488D0E82EFF2485D0082F10E0AE
:107EA000102F00270E291F29000F111F8ED06801E7
:107EB0006FC0863521F484E090D080E0DECF843638
:107EC00009F040C070D06FD0082F6DD080E0C81688
:107ED00080E7D80618F4F601B7BEE895C0E0D1E017
:107EE00062D089930C17E1F7F0E0CF16F0E7DF06D8
:107EF00018F0F601B7BEE89568D007B600FCFDCFD4
:107F0000A601A0E0B1E02C9130E011968C91119780
:107F100090E0982F8827822B932B1296FA010C0160
:107F200087BEE89511244E5F5F4FF1E0A038BF0790
:107F300051F7F601A7BEE89507B600FCFDCF97BE46
:107F4000E89526C08437B1F42ED02DD0F82E2BD052
:107F50003CD0F601EF2C8F010F5F1F4F84911BD097
:107F6000EA94F801C1F70894C11CD11CFA94CF0C13
:107F7000D11C0EC0853739F428D08EE10CD085E9AC
:107F80000AD08FE07ACF813511F488E018D01DD067
:107F900080E101D065CF982F8091C00085FFFCCF94
:107FA0009093C60008958091C00087FFFCCF809118
:107FB000C00084FD01C0A8958091C6000895E0E648
:107FC000F0E098E1908380830895EDDF803219F02E
:107FD00088E0F5DFFFCF84E1DECF1F93182FE3DFCA
:107FE0001150E9F7F2DF1F91089580E0E8DFEE27F6
:047FF000FF270994CA
:027FFE00040479
:00000001FF
