:100000000C945E000C9486000C9486000C94860080
:100010000C9486000C9486000C9486000C94860048
:100020000C9486000C9486000C9486000C940204B8
:100030000C9486000C9486000C9486000C94860028
:100040000C9460030C9486000C94D0030C94AA03C7
:100050000C9486000C9486000C9486000C94860008
:100060000C9486000C948600000000080002010039
:100070000003040700000000000000000000000072
:10008000250028002B0000000000240027002A0083
:10009000040404040404040402020202020203032E
:1000A0000303030301020408102040800102040836
:1000B0001020010204081020BE04960711241FBE60
:1000C000CFEFD8E0DEBFCDBF11E0A0E0B1E0E8E1C6
:1000D000F5E102C005900D92A432B107D9F722E0F4
:1000E000A4E2B1E001C01D92AD30B207E1F710E02B
:1000F000CDE5D0E004C02197FE010E947C08CC35FC
:10010000D107C9F70E944C050C947F0A0C9400009B
:100110000895AF92BF92CF92DF92EF92FF920F932A
:100120001F93CF93DF936C017B018B01040F151F8D
:10013000EB015E01AE18BF08C017D10759F06991F5
:10014000D601ED91FC910190F081E02DC601099559
:10015000892B79F7C501DF91CF911F910F91FF9006
:10016000EF90DF90CF90BF90AF900895FC01538D3A
:10017000448D252F30E0842F90E0821B930B541781
:1001800010F0CF96089501970895FC01918D828D0E
:10019000981761F0A28DAE0FBF2FB11D5D968C91A7
:1001A000928D9F5F9F73928F90E008958FEF9FEFE6
:1001B00008952FB7F89480912B0190912C01A09174
:1001C0002D01B0912E012FBF8093370190933801FC
:1001D000A0933901B0933A018FE291E00E94C500EB
:1001E00097FF26C02FB7F89480912B0190912C0196
:1001F000A0912D01B0912E012FBF40913701509158
:1002000038016091390170913A01841B950BA60B5E
:10021000B70B4091330150913401609135017091D9
:10022000360184179507A607B707B0F28FEF9FEF47
:100230000895FC01918D828D981731F0828DE80F21
:10024000F11D858D90E008958FEF9FEF0895FC01DB
:10025000918D228D892F90E0805C9F4F821B9109A8
:100260008F73992708958FE291E00E94270121E082
:10027000892B09F420E0822F089580E090E0892BFB
:1002800029F00E94330181110C9400000895FC01B3
:10029000A48DA80FB92FB11DA35ABF4F2C91848DE7
:1002A00090E001968F739927848FA689B7892C9344
:1002B000A089B1898C91837080648C93938D848D97
:1002C000981306C00288F389E02D80818F7D80839A
:1002D0000895EF92FF920F931F93CF93DF93EC015A
:1002E00081E0888F9B8D8C8D98131AC0E889F989DD
:1002F000808185FF15C09FB7F894EE89FF896083E0
:10030000E889F98980818370806480839FBF81E060
:1003100090E0DF91CF911F910F91FF90EF900895A2
:10032000F62E0B8D10E00F5F1F4F0F731127E02E7D
:100330008C8D8E110CC00FB607FCFACFE889F989B5
:10034000808185FFF5CFCE010E944701F1CFEB8D73
:10035000EC0FFD2FF11DE35AFF4FF0829FB7F89489
:100360000B8FEA89FB8980818062CFCFCF93DF93A7
:10037000EC01888D8823B9F0AA89BB89E889F989BD
:100380008C9185FD03C0808186FD0DC00FB607FCF2
:10039000F7CF8C9185FFF2CF808185FFEDCFCE0125
:1003A0000E944701E9CFDF91CF91089590E0FC01D1
:1003B000E859FF4F2491FC01EC55FF4F3491FC01AB
:1003C000E057FF4FE491EE23C9F0222339F02330A8
:1003D00001F1A8F4213019F1223029F1F0E0EE0FFB
:1003E000FF1FE458FF4FA591B4918FB7F894EC919B
:1003F000611126C030953E233C938FBF089527306E
:10040000A9F02830C9F0243049F7809180008F7D11
:1004100003C0809180008F7780938000DFCF84B508
:100420008F7784BDDBCF84B58F7DFBCF8091B0000B
:100430008F778093B000D2CF8091B0008F7DF9CFBD
:100440003E2BDACFCF92DF92EF92FF92CF93DF93E2
:10045000EC01603282E07807CCF5653B710514F061
:1004600064EB70E0898128E830E0281B310987FDC2
:100470003395220F331F220F331F6901330FEE080C
:10048000FF088A8128E532E0281B310987FD339572
:10049000220F331F220F331F032E000C440B550B6A
:1004A0002C193D094E095F09DB0177FF02C0B0E05E
:1004B000A0E00E94000824EB30E040E050E00E9401
:1004C000D607C20ED31EE41EF51EB601E881EC303D
:1004D00070F5298188E890E0821B910927FD9395AA
:1004E000880F991F880F991F681779077CF02A8158
:1004F00088E592E0821B910927FD9395880F991F4B
:10050000880F991F681779070CF4CB010297880FA1
:10051000991F4FB7F8942E2F30E0F901EE0FFF1F0F
:10052000E20FF31FE453FE4F928381834FBFDF91AD
:10053000CF91FF90EF90DF90CF900895FC018081E4
:100540009181009711F00C941E0908950F931F9349
:10055000CF93DF93EC0188819981009759F02A812C
:100560003B812617370730F081E0DF91CF911F9153
:100570000F9108958B016F5F7F4F0E94A70900972D
:1005800059F0998388831B830A832C813D81232B17
:1005900059F7FC011082E8CF80E0E7CFEF92FF929D
:1005A0000F931F93CF93DF93EC017B018A01BA0174
:1005B0000E94A60228813981811114C021153105BC
:1005C00019F0C9010E941E09198218821D821C821D
:1005D0001B821A82CE01DF91CF911F910F91FF9064
:1005E000EF9008951D830C83B701C9010E94780A1A
:1005F000F1CFAF92BF92CF92DF92EF92FF920F9323
:100600001F93CF93DF93EC016B015A0179012417FB
:10061000350720F48B2D5901E42EF82E198218820B
:100620001B821A821D821C8250E040E062E271E06F
:10063000CE010E94CE02D60114960D911C91A016F7
:10064000B10628F5E016F10608F48701D601ED9110
:10065000FC911197E00FF11FF08010826D917C9159
:100660006A0D7B1D61157105F1F0FB010190002001
:10067000E9F73197AF01461B570BCE010E94CE021E
:10068000F60180819181080F191FD801FC92CE01DB
:10069000DF91CF911F910F91FF90EF90DF90CF905E
:1006A000BF90AF90089588819981009711F00E94C2
:1006B0001E09198218821D821C821B821A82E0CFB9
:1006C0001F920F920FB60F9211242F933F938F9387
:1006D0009F93AF93BF9380912B0190912C01A09198
:1006E0002D01B0912E0130912A0123E0230F2D37E7
:1006F00058F50196A11DB11D20932A0180932B016D
:1007000090932C01A0932D01B0932E01809126018E
:1007100090912701A0912801B09129010196A11D76
:10072000B11D8093260190932701A0932801B093D7
:100730002901BF91AF919F918F913F912F910F9080
:100740000FBE0F901F90189526E8230F0296A11D4B
:10075000B11DD2CF1F920F920FB60F9211242F937B
:100760003F934F935F936F937F938F939F93AF9339
:10077000BF93EF93FF938FE291E00E944701FF91B7
:10078000EF91BF91AF919F918F917F916F915F9109
:100790004F913F912F910F900FBE0F901F90189582
:1007A0001F920F920FB60F9211242F938F939F9346
:1007B000EF93FF93E0913F01F09140018081E09140
:1007C0004501F091460182FD1BC090818091480156
:1007D0008F5F8F7320914901821741F0E0914801AA
:1007E000F0E0E15DFE4F958F80934801FF91EF911E
:1007F0009F918F912F910F900FBE0F901F90189582
:100800008081F4CF1F920F920FB60F9211242F9375
:100810003F934F935F936F937F938F939F93AF9388
:10082000BF93CF93DF93EF93FF9380912401C09107
:10083000F001D0E087FF24C0109285001092840060
:10084000809124018F5F8093240180912401082EE0
:10085000000C990B8C179D0724F4809124018C3097
:10086000C4F18091840090918500049680349C4965
:1008700008F47AC08091840090918500049676C037
:1008800080912401082E000C990B8C179D07C4F64B
:10089000E09124018E2FEE0F990BFC01EE0FFF1F4C
:1008A000E80FF91FE453FE4F808186FFC9CFE09126
:1008B00024018E2FEE0F990BFC01EE0FFF1FE80FA6
:1008C000F91FE453FE4F808160E08F730E94D601D0
:1008D000B7CF2091840030918500E09124018E2FC4
:1008E000EE0F990BFC01EE0FFF1FE80FF91FE45309
:1008F000FE4F81819281820F931F90938900809394
:100900008800E09124018E2FEE0F990BFC01EE0F71
:10091000FF1FE80FF91FE453FE4F808186FF11C0CF
:10092000E09124018E2FEE0F990BFC01EE0FFF1FBB
:10093000E80FF91FE453FE4F808161E08F730E943E
:10094000D601FF91EF91DF91CF91BF91AF919F9130
:100950008F917F916F915F914F913F912F910F9068
:100960000FBE0F901F90189580E49CE9909389002A
:10097000809388008FEF80932401E3CF109232019F
:100980001092310188EE93E0A0E0B0E08093330153
:1009900090933401A0933501B093360180E191E04A
:1009A0009093300180932F0185EC90E090933C016F
:1009B00080933B0184EC90E090933E0180933D0155
:1009C00080EC90E09093400180933F0181EC90E0B7
:1009D000909342018093410182EC90E09093440116
:1009E0008093430186EC90E090934601809345010B
:1009F000109248011092490110924A0110924B0145
:100A0000E7EFF1E028EB3BE04FEF8091F0018C3015
:100A1000F8F040838091F0018C3060F1438336968A
:100A200082E0E930F80789F71092F2011092F101A3
:100A30001092F4011092F3011092F6011092F50158
:100A400050E040E062E271E081EF91E00C94CE0270
:100A500091E0980F9093F001808390E0DC01AA0F61
:100A6000BB1FA80FB91FA453BE4F12963C932E93E1
:100A70001197D0CF91E0980F9093F001838390E08D
:100A8000DC01AA0FBB1FA80FB91FA453BE4F1296BB
:100A90003C932E931197C3CFCF93DF93CDB7DEB79F
:100AA0002C970FB6F894DEBF0FBECDBF789484B5F7
:100AB000826084BD84B5816084BD85B5826085BD5A
:100AC00085B5816085BD80916E00816080936E00E8
:100AD00010928100809181008260809381008091DA
:100AE000810081608093810080918000816080938B
:100AF00080008091B10084608093B1008091B0004B
:100B000081608093B00080917A00846080937A0045
:100B100080917A00826080937A0080917A0081606F
:100B200080937A0080917A00806880937A00109296
:100B3000C10076E0E72E71E0F72EE9E0CE2EE2E08C
:100B4000DE2E47EF51E0FCE0BF2EA2E0AA2EDA0134
:100B500010E000E08C918C3008F072C0F701E00FDB
:100B6000F11F3081832F90E0FC01EC55FF4F249161
:100B700080579F4FFC0184918823A1F090E0880F5B
:100B8000991FFC01EA57FF4F65917491FC01E458ED
:100B9000FF4F859094908FB7F894FB019081292B9B
:100BA00020838FBF8C91682F70E0FB01EE0FFF1F39
:100BB000E60FF71FE453FE4F932F9F733081307C75
:100BC000392B308311961C92119712961C92129712
:100BD0006B2D0E9470088B9D3001112470E060E045
:100BE0009301260F371F4901880C991C280D391DC8
:100BF00024533E4FF901908196FD15C06F5F7F4FE2
:100C00006C30710569F781110EC010928000A092BE
:100C100081001092850010928400B19A80916F003B
:100C2000826080936F00EC918E2F90E0FC01EE0FBC
:100C3000FF1FE80FF91FE453FE4F8081806480831B
:100C400013960130110509F0AAC04A5F5F4FF2E028
:100C5000EF0EF11CC416D50609F079CFE0913F01E3
:100C6000F091400182E08083E0913B01F0913C01F2
:100C70001082E0913D01F0913E0180E1808310926D
:100C80004701E0914301F091440186E08083E091C7
:100C90004101F0914201808180618083E0914101B6
:100CA000F0914201808188608083E0914101F09160
:100CB0004201808180688083E0914101F09142018E
:100CC00080818F7D80838AE090E0A0E0B0E0809317
:100CD000330190933401A0933501B09336016AE556
:100CE00070E087EF91E00E9422026AE570E08DEFEC
:100CF00091E00E9422026AE570E083E092E00E94A7
:100D000022026AE570E08AEF91E00E9422026AE521
:100D100070E080E092E00E9422026AE570E086E0E6
:100D200092E00E9422028EE191E0682E880F7708FF
:100D30008FE291E00E942701892B09F45BC01A829F
:100D400019821C821B821E821D8250E040E062E2FA
:100D500071E0CE0101960E94CE020E94D90097FD5B
:100D600021C086159705F1F08F8318860D811E81AD
:100D70000F5F1F4FB801CE0101960E94A602882383
:100D800061F329813A818D819E81BE01695F7F4F28
:100D9000820F931F0E94780A1E830D83DECF01E02D
:100DA00010E0D8CE8091F1019091F201009709F402
:100DB000A2C069817A816115710509F49AC04091D8
:100DC000F3015091F4012D813E814217530708F43D
:100DD00090C00E94780A8D819E819093F601809345
:100DE000F5011E821D82CE0101960E949E0281E0C5
:100DF0008093250180912501882309F46DC04091DD
:100E0000F5015091F6016091F1017091F2018FE2CC
:100E100091E00E94890042E050E060E271E08FE2E0
:100E200091E00E9489000091F5011091F6010115F1
:100E3000110571F0E090F101F090F2016DE670E0C3
:100E4000C7010E946D0AAC014E195F09892B11F48C
:100E50004FEF5FEF4F5F5F4F980161EF71E0CE01A1
:100E600007960E94F90297EFC92E91E0D92E10E063
:100E700000E056017801912C812C97012D5F3F4FA6
:100E8000A701BE01695F7F4FCE0101960E94F90262
:100E900089819A8160E0009711F00E949A0770E0C2
:100EA000C5010E942202CE0101960E949E0284E0AA
:100EB000E80EF11CE3E0AE0EB11C8A94892891F58E
:100EC000085F1F4F86E0C80ED11C0831110589F656
:100ED000CE0107960E949E0280E090E0892B09F4E3
:100EE00027CF0E943301882309F422CF0E940000FB
:100EF0001FCF0E941E0989819A819093F2018093ED
:100F0000F1018B819C819093F4018093F3018D8199
:100F10009E819093F6018093F5011A8219821C82BA
:100F20001B825FCF88248394912CA7CF81EF91E01F
:100F30000C949E021F93FC0199278827BC01E8941A
:100F400011911032E9F3193010F01E30C8F31B3242
:100F500051F01D3249F4689406C00E94C107610F28
:100F6000711D811D911D119110531A30B0F33EF483
:100F700090958095709561957F4F8F4F9F4F1F91F2
:100F80000895592F482F372F262F660F771F881F58
:100F9000991F660F771F881F991F620F731F841F89
:100FA000951F660F771F881F991F0895052E97FBC1
:100FB0001EF400940E94ED0757FD07D00E943F08E1
:100FC00007FC03D04EF40C94ED07509540953095F6
:100FD00021953F4F4F4F5F4F0895909580957095A5
:100FE00061957F4F8F4F9F4F08950E946108A59F85
:100FF000900DB49F900DA49F800D911D1124089514
:10100000B7FF0C94F5070E94F507821B930B089518
:101010002F923F924F925F926F927F928F929F9208
:10102000AF92BF92CF92DF92EF92FF920F931F93F6
:10103000CF93DF93CDB7DEB7CA1BDB0B0FB6F894A7
:10104000DEBF0FBECDBF09942A88398848885F84E7
:101050006E847D848C849B84AA84B984C884DF8058
:10106000EE80FD800C811B81AA81B981CE0FD11D3C
:101070000FB6F894DEBF0FBECDBFED010895A1E21B
:101080001A2EAA1BBB1BFD010DC0AA1FBB1FEE1F02
:10109000FF1FA217B307E407F50720F0A21BB30B4D
:1010A000E40BF50B661F771F881F991F1A9469F7C9
:1010B00060957095809590959B01AC01BD01CF0125
:1010C0000895A29FB001B39FC001A39F700D811D21
:1010D0001124911DB29F700D811D1124911D089541
:1010E000991B79E004C0991F961708F0961B881F7A
:1010F0007A95C9F780950895EE0FFF1F0590F4913A
:10110000E02D09940F931F93CF93DF9382309105C5
:1011100010F482E090E0E0910B02F0910C0230E0DC
:1011200020E0B0E0A0E0309799F42115310509F4F2
:101130004AC0281B390B24303105D8F58A819B81A0
:101140006115710589F1FB0193838283FE0111C052
:10115000408151810281138148175907E0F04817F7
:10116000590799F4109761F012960C931297139601
:101170001C933296CF01DF91CF911F910F9108956B
:1011800000930B0210930C02F4CF2115310551F09E
:101190004217530738F0A901DB019A01BD01DF01B5
:1011A000F801C1CFEF01F9CF90930C0280930B02AD
:1011B000CDCFFE01E20FF31F8193919322503109AD
:1011C00039832883D7CF2091090230910A02232B3B
:1011D00041F4209102013091030130930A022093DF
:1011E000090220910001309101012115310541F4DE
:1011F0002DB73EB74091040150910501241B350BDA
:10120000E0910902F0910A02E217F307A0F42E1B05
:101210003F0B2817390778F0AC014E5F5F4F24175A
:10122000350748F04E0F5F1F50930A0240930902A2
:10123000819391939FCFF0E0E0E09CCFCF93DF9339
:101240000097E9F0FC01329713821282A0910B0201
:10125000B0910C02ED0130E020E01097A1F4208164
:101260003181820F931F2091090230910A022817C1
:10127000390709F061C0F0930A02E0930902DF9197
:10128000CF910895EA01CE17DF07E8F54A815B8127
:101290009E0141155105B1F7E901FB83EA834991AC
:1012A0005991C40FD51FEC17FD0761F4808191811E
:1012B0000296840F951FE901998388838281938127
:1012C0009B838A83F0E0E0E012968D919C911397C6
:1012D0000097B9F52D913C911197CD010296820F9F
:1012E000931F2091090230910A022817390739F615
:1012F000309751F510920C0210920B02B0930A0233
:10130000A0930902BCCFD383C28340815181840F53
:10131000951FC817D90761F44E5F5F4F8881998187
:10132000480F591F518340838A819B819383828315
:101330002115310509F0B0CFF0930C02E0930B02B8
:101340009ECFFD01DC01C0CF13821282D7CFB0E067
:10135000A0E0EDEAF9E00C940A088C01009751F442
:10136000CB010E9482088C01C801CDB7DEB7E0E155
:101370000C942608FC01E60FF71F9C01225031094E
:10138000E217F30708F49DC0D901CD91DC911197C4
:10139000C617D70798F0C530D10530F3CE010497B2
:1013A0008617970708F3C61BD70B2297C193D193D3
:1013B0006D937C93CF010E941E09D6CF5B01AC1ABE
:1013C000BD0A4C018C0E9D1EA0910B02B0910C0227
:1013D000512C412CF12CE12C109731F58091090210
:1013E00090910A028815990509F05CC046165706C7
:1013F00008F058C08091000190910101009741F4DC
:101400008DB79EB74091040150910501841B950B47
:10141000E817F90708F055C0F0930A02E0930902B3
:10142000F90171836083A0CF8D919C9111971296E1
:101430006C90129713967C901397A815B90559F5DF
:101440006C0142E0C40ED11CCA14DB0420F1AC01D3
:101450004A195B09DA011296159780F0628273824D
:1014600051834083D9016D937C93E114F10471F0B1
:10147000D7011396FC93EE93129776CF22968C0F9A
:101480009D1FF90191838083F301EFCFF0930C024C
:10149000E0930B0269CF4816590608F42C017D0130
:1014A000D3019ACFCB010E9482087C01009749F0BA
:1014B000AE01B8010E94640AC8010E941E0987019A
:1014C00053CF10E000E050CFFB01DC0102C00190DF
:1014D0000D9241505040D8F70895FC018191861734
:1014E00021F08823D9F7992708953197CF010895DE
:1014F000FB01DC0101900D920020E1F7089510E05E
:10150000CDE5D0E004C0FE010E947C082196CE35D6
:08151000D107C9F7F894FFCFE1
:1015180000000D0280000203040506070000000019
:1015280069018900B600B6012701C50019014D00FF
:041538000D0A000098
:00000001FF
