:100000000C945E000C9486000C9486000C94860080
:100010000C9486000C9486000C9486000C94860048
:100020000C9486000C9486000C9486000C940004BA
:100030000C9486000C9486000C9486000C94860028
:100040000C945E030C9486000C94CE030C94A803CD
:100050000C9486000C9486000C9486000C94860008
:100060000C9486000C948600000000080002010039
:100070000003040700000000000000000000000072
:10008000250028002B0000000000240027002A0083
:10009000040404040404040402020202020203032E
:1000A0000303030301020408102040800102040836
:1000B0001020010204081020BC04890711241FBE6F
:1000C000CFEFD8E0DEBFCDBF11E0A0E0B1E0EEEEB3
:1000D000F4E102C005900D92A232B107D9F722E0F7
:1000E000A2E2B1E001C01D92AB30B207E1F710E02F
:1000F000CDE5D0E004C02197FE010E946708CC3511
:10010000D107C9F70E944A050C946A0A0C940000B2
:100110000895AF92BF92CF92DF92EF92FF920F932A
:100120001F93CF93DF936C017B018B01040F151F8D
:10013000EB015E01AE18BF08C017D10759F06991F5
:10014000D601ED91FC910190F081E02DC601099559
:10015000892B79F7C501DF91CF911F910F91FF9006
:10016000EF90DF90CF90BF90AF900895FC01538D3A
:10017000448D252F30E0842F90E0821B930B541781
:1001800010F0CF96089501970895FC01918D828D0E
:10019000981761F0A28DAE0FBF2FB11D5D968C91A7
:1001A000928D9F5F9F73928F90E008958FEF9FEFE6
:1001B00008952FB7F8948091290190912A01A09178
:1001C0002B01B0912C012FBF809335019093360104
:1001D000A0933701B09338018DE291E00E94C500F1
:1001E00097FF26C02FB7F8948091290190912A019A
:1001F000A0912B01B0912C012FBF4091350150915E
:1002000036016091370170913801841B950BA60B64
:10021000B70B4091310150913201609133017091DF
:10022000340184179507A607B707B0F28FEF9FEF49
:100230000895FC01918D828D981731F0828DE80F21
:10024000F11D858D90E008958FEF9FEF0895FC01DB
:10025000918D228D892F90E0805C9F4F821B9109A8
:100260008F73992708958DE291E00E94270121E084
:10027000892B09F420E0822F089580E090E0892BFB
:1002800029F00E94330181110C9400000895FC01B3
:10029000A48DA80FB92FB11DA35ABF4F2C91848DE7
:1002A00090E001968F739927848FA689B7892C9344
:1002B000A089B1898C91837080648C93938D848D97
:1002C000981306C00288F389E02D80818F7D80839A
:1002D0000895EF92FF920F931F93CF93DF93EC015A
:1002E00081E0888F9B8D8C8D98131AC0E889F989DD
:1002F000808185FF15C09FB7F894EE89FF896083E0
:10030000E889F98980818370806480839FBF81E060
:1003100090E0DF91CF911F910F91FF90EF900895A2
:10032000F62E0B8D10E00F5F1F4F0F731127E02E7D
:100330008C8D8E110CC00FB607FCFACFE889F989B5
:10034000808185FFF5CFCE010E944701F1CFEB8D73
:10035000EC0FFD2FF11DE35AFF4FF0829FB7F89489
:100360000B8FEA89FB8980818062CFCFCF93DF93A7
:10037000EC01888D8823B9F0AA89BB89E889F989BD
:100380008C9185FD03C0808186FD0DC00FB607FCF2
:10039000F7CF8C9185FFF2CF808185FFEDCFCE0125
:1003A0000E944701E9CFDF91CF91089590E0FC01D1
:1003B000E859FF4F2491FC01EC55FF4F3491FC01AB
:1003C000E057FF4FE491EE23C9F0222339F02330A8
:1003D00001F1A8F4213019F1223029F1F0E0EE0FFB
:1003E000FF1FE458FF4FA591B4918FB7F894EC919B
:1003F000611126C030953E233C938FBF089527306E
:10040000A9F02830C9F0243049F7809180008F7D11
:1004100003C0809180008F7780938000DFCF84B508
:100420008F7784BDDBCF84B58F7DFBCF8091B0000B
:100430008F778093B000D2CF8091B0008F7DF9CFBD
:100440003E2BDACFDC01EC91EC3090F511968C91DB
:10045000119728E830E0281B310987FD3395220FDA
:10046000331F220F331F6217730784F012968C918B
:1004700028E532E0281B310987FD3395220F331F11
:10048000220F331F621773070CF49B0122503109AE
:10049000220F331F4FB7F8948E2F90E0FC01EE0F20
:1004A000FF1FE80FF91FE653FE4F328321834FBF32
:1004B0000895CF92DF92EF92FF92CF93DF93EC01FA
:1004C000898198E8C92ED12CC81AD10887FDD39408
:1004D000CC0CDD1CCC0CDD1C0D2C000CEE08FF0838
:1004E0008A8128E532E0281B310987FD3395220FE8
:1004F000331F220F331F032E000C440B550B2C19F6
:100500003D094E095F09AAE5B0E00E94E80724EB27
:1005100030E040E050E00E94C907CA01B9016C0D0B
:100520007D1D8E1D9F1DCE01DF91CF91FF90EF901D
:10053000DF90CF900C942202FC0180819181009782
:1005400011F00C94090908950F931F93CF93DF9333
:10055000EC0188819981009759F02A813B81261707
:10056000370730F081E0DF91CF911F910F9108950F
:100570008B016F5F7F4F0E949209009759F099831A
:1005800088831B830A832C813D81232B59F7FC012F
:100590001082E8CF80E0E7CFEF92FF920F931F9396
:1005A000CF93DF93EC017B018A01BA010E94A40280
:1005B00028813981811114C02115310519F0C90133
:1005C0000E940909198218821D821C821B821A82CC
:1005D000CE01DF91CF911F910F91FF90EF90089581
:1005E0001D830C83B701C9010E94630AF1CFAF924A
:1005F000BF92CF92DF92EF92FF920F931F93CF9310
:10060000DF93EC016B015A0179012417350720F4BF
:100610008B2D5901E42EF82E198218821B821A8222
:100620001D821C8250E040E060E271E0CE010E9439
:10063000CC02D60114960D911C91A016B10628F596
:10064000E016F10608F48701D601ED91FC911197AF
:10065000E00FF11FF08010826D917C916A0D7B1D7F
:1006600061157105F1F0FB0101900020E9F7319768
:10067000AF01461B570BCE010E94CC02F6018081D0
:100680009181080F191FD801FC92CE01DF91CF9103
:100690001F910F91FF90EF90DF90CF90BF90AF90A0
:1006A000089588819981009711F00E9409091982A3
:1006B00018821D821C821B821A82E0CF1F920F9229
:1006C0000FB60F9211242F933F938F939F93AF9365
:1006D000BF938091290190912A01A0912B01B091A3
:1006E0002C013091280123E0230F2D3758F5019676
:1006F000A11DB11D209328018093290190932A0107
:10070000A0932B01B0932C0180912401909125019D
:10071000A0912601B09127010196A11DB11D8093E2
:10072000240190932501A0932601B0932701BF9146
:10073000AF919F918F913F912F910F900FBE0F908E
:100740001F90189526E8230F0296A11DB11DD2CF48
:100750001F920F920FB60F9211242F933F934F9336
:100760005F936F937F938F939F93AF93BF93EF9319
:10077000FF938DE291E00E944701FF91EF91BF91BD
:10078000AF919F918F917F916F915F914F913F9129
:100790002F910F900FBE0F901F9018951F920F92E0
:1007A0000FB60F9211242F938F939F93EF93FF9384
:1007B000E0913D01F0913E018081E0914301F09193
:1007C000440182FD1BC09081809146018F5F8F7331
:1007D00020914701821741F0E0914601F0E0E35D8E
:1007E000FE4F958F80934601FF91EF919F918F91DE
:1007F0002F910F900FBE0F901F9018958081F4CF0E
:100800001F920F920FB60F9211242F933F934F9385
:100810005F936F937F938F939F93AF93BF93CF9388
:10082000DF93EF93FF9380912201C091EE01D0E01E
:1008300087FF24C0109285001092840080912201CD
:100840008F5F8093220180912201082E000C990B6A
:100850008C179D0724F4809122018C30C4F1809183
:10086000840090918500049680349C4908F47AC0F5
:100870008091840090918500049676C08091220139
:10088000082E000C990B8C179D07C4F6E0912201ED
:100890008E2FEE0F990BFC01EE0FFF1FE80FF91FD3
:1008A000E653FE4F808186FFC9CFE09122018E2F53
:1008B000EE0F990BFC01EE0FFF1FE80FF91FE65337
:1008C000FE4F808160E08F730E94D601B7CF2091E8
:1008D000840030918500E09122018E2FEE0F990B5C
:1008E000FC01EE0FFF1FE80FF91FE653FE4F818159
:1008F0009281820F931F9093890080938800E091EA
:1009000022018E2FEE0F990BFC01EE0FFF1FE80F57
:10091000F91FE653FE4F808186FF11C0E09122014E
:100920008E2FEE0F990BFC01EE0FFF1FE80FF91F42
:10093000E653FE4F808161E08F730E94D601FF91E4
:10094000EF91DF91CF91BF91AF919F918F917F9167
:100950006F915F914F913F912F910F900FBE0F902C
:100960001F90189580E49CE99093890080938800FB
:100970008FEF80932201E3CF1092300110922F016C
:1009800088EE93E0A0E0B0E08093310190933201D3
:10099000A0933301B093340180E191E090932E0154
:1009A00080932D0185EC90E090933A01809339017A
:1009B00084EC90E090933C0180933B0180EC90E0CC
:1009C00090933E0180933D0181EC90E09093400133
:1009D00080933F0182EC90E090934201809341012B
:1009E00086EC90E09093440180934301109246017D
:1009F000109247011092480110924901E5EFF1E091
:100A000028EB3BE04FEF8091EE018C30F8F0408313
:100A10008091EE018C3060F14383369682E0E730BE
:100A2000F80789F71092F0011092EF011092F2018D
:100A30001092F1011092F4011092F30150E040E0A5
:100A400060E271E08FEE91E00C94CC0291E0980F9F
:100A50009093EE01808390E0DC01AA0FBB1FA80FEA
:100A6000B91FA653BE4F12963C932E931197D0CF29
:100A700091E0980F9093EE01838390E0DC01AA0F40
:100A8000BB1FA80FB91FA653BE4F12963C932E93BF
:100A90001197C3CFCF93DF93CDB7DEB72C970FB6A7
:100AA000F894DEBF0FBECDBF789484B5826084BD5C
:100AB00084B5816084BD85B5826085BD85B5816062
:100AC00085BD80916E00816080936E0010928100E0
:100AD000809181008260809381008091810081609B
:100AE000809381008091800081608093800080915C
:100AF000B10084608093B1008091B00081608093E8
:100B0000B00080917A00846080937A0080917A00AE
:100B1000826080937A0080917A00816080937A006D
:100B200080917A00806880937A001092C10076E00C
:100B3000E72E71E0F72EE7E0CE2EE2E0DE2E45EF65
:100B400051E0FCE0BF2EA2E0AA2EDA0110E000E0A6
:100B50008C918C3008F072C0F701E00FF11F3081EA
:100B6000832F90E0FC01EC55FF4F249180579F4F5D
:100B7000FC0184918823A1F090E0880F991FFC016B
:100B8000EA57FF4F65917491FC01E458FF4F85903F
:100B900094908FB7F894FB019081292B20838FBF0D
:100BA0008C91682F70E0FB01EE0FFF1FE60FF71F1F
:100BB000E653FE4F932F9F733081307C392B308367
:100BC00011961C92119712961C9212976B2D0E94EF
:100BD0005B088B9D3001112470E060E09301260FCB
:100BE000371F4901880C991C280D391D26533E4F8B
:100BF000F901908196FD15C06F5F7F4F6C307105D4
:100C000069F781110EC010928000A09281001092AD
:100C1000850010928400B19A80916F008260809369
:100C20006F00EC918E2F90E0FC01EE0FFF1FE80F9C
:100C3000F91FE653FE4F8081806480831396013054
:100C4000110509F09DC04A5F5F4FF2E0EF0EF11C05
:100C5000C416D50609F079CFE0913D01F0913E012F
:100C600082E08083E0913901F0913A011082E091B5
:100C70003B01F0913C0180E1808310924501E091BD
:100C80004101F091420186E08083E0913F01F091C3
:100C90004001808180618083E0913F01F0914001BB
:100CA000808188608083E0913F01F09140018081E4
:100CB00080688083E0913F01F091400180818F7DC9
:100CC00080838AE090E0A0E0B0E0809331019093CF
:100CD0003201A0933301B093340185EF91E00E947B
:100CE00059028BEF91E00E94590281E092E00E944C
:100CF000590288EF91E00E9459028EEF91E00E9424
:100D0000590284E092E00E94590220E0622E20E025
:100D1000722E8DE291E00E942701892B09F45BC0BD
:100D20001A8219821C821B821E821D8250E040E0C2
:100D300060E271E0CE0101960E94CC020E94D900CF
:100D400097FD21C08D349105F1F08F8318860D81B8
:100D50001E810F5F1F4FB801CE0101960E94A402B1
:100D6000882361F329813A818D819E81BE01695F6B
:100D70007F4F820F931F0E94630A1E830D83DECF75
:100D800001E010E0E5CE8091EF019091F001009735
:100D900009F4A0C069817A816115710509F498C0D0
:100DA0004091F1015091F2012D813E81421753078C
:100DB00008F48EC00E94630A8D819E819093F40195
:100DC0008093F3011E821D82CE0101960E949C0237
:100DD00081E08093230180912301882309F46CC072
:100DE0004091F3015091F4016091EF017091F00195
:100DF0008DE291E00E94890042E050E06EE171E0F6
:100E00008DE291E00E9489000091F3011091F401BC
:100E10000115110571F0E090EF01F090F0016DE621
:100E200070E0C7010E94580AAC014E195F09892B76
:100E300011F44FEF5FEF4F5F5F4F98016FEE71E07E
:100E4000CE0107960E94F70295EFC92E91E0D92EA8
:100E500010E000E056017801912C812C97012D5F64
:100E60003F4FA701BE01695F7F4FCE0101960E94EF
:100E7000F70289819A81009709F447C00E948D0783
:100E8000C5010E942202CE0101960E949C0285E0CB
:100E9000E80EF11CE3E0AE0EB11C8A94892889F5B6
:100EA000065F1F4F86E0C80ED11C0E31110591F66A
:100EB000CE0107960E949C026114710409F429CFA7
:100EC0000E943301882309F420CF0E9400001DCF27
:100ED0000E94090989819A819093F0018093EF0122
:100EE0008B819C819093F2018093F1018D819E8191
:100EF0009093F4018093F3011A8219821C821B8261
:100F000061CF88248394912CA9CF60E070E0CB015D
:100F1000B7CF8FEE91E00C949C021F93FC019927B0
:100F20008827BC01E89411911032E9F3193010F0D0
:100F30001E30C8F31B3251F01D3249F4689406C0CC
:100F40000E94B407610F711D811D911D11911053F5
:100F50001A30B0F33EF490958095709561957F4F6F
:100F60008F4F9F4F1F910895592F482F372F262FAE
:100F7000660F771F881F991F660F771F881F991F9D
:100F8000620F731F841F951F660F771F881F991F9D
:100F90000895052E97FB1EF400940E94E00757FD6C
:100FA00007D00E942A0807FC03D04EF40C94E007F7
:100FB00050954095309521953F4F4F4F5F4F089585
:100FC00090958095709561957F4F8F4F9F4F0895B5
:100FD0000E944C08A59F900DB49F900DA49F800D7A
:100FE000911D112408952F923F924F925F926F921C
:100FF0007F928F929F92AF92BF92CF92DF92EF92A9
:10100000FF920F931F93CF93DF93CDB7DEB7CA1B29
:10101000DB0B0FB6F894DEBF0FBECDBF09942A8854
:10102000398848885F846E847D848C849B84AA84FC
:10103000B984C884DF80EE80FD800C811B81AA8189
:10104000B981CE0FD11D0FB6F894DEBF0FBECDBF54
:10105000ED010895A1E21A2EAA1BBB1BFD010DC0D4
:10106000AA1FBB1FEE1FFF1FA217B307E407F50758
:1010700020F0A21BB30BE40BF50B661F771F881F34
:10108000991F1A9469F760957095809590959B01CA
:10109000AC01BD01CF010895A29FB001B39FC00173
:1010A000A39F700D811D1124911DB29F700D811D94
:1010B0001124911D0895991B79E004C0991F96177A
:1010C00008F0961B881F7A95C9F780950895EE0F52
:1010D000FF1F0590F491E02D09940F931F93CF9378
:1010E000DF938230910510F482E090E0E0910902F4
:1010F000F0910A0230E020E0B0E0A0E0309799F4EF
:101100002115310509F44AC0281B390B243031055B
:10111000D8F58A819B816115710589F1FB01938363
:101120008283FE0111C040815181028113814817E1
:101130005907E0F04817590799F4109761F0129693
:101140000C93129713961C933296CF01DF91CF9197
:101150001F910F9108950093090210930A02F4CF92
:101160002115310551F04217530738F0A901DB0171
:101170009A01BD01DF01F801C1CFEF01F9CF9093D2
:101180000A0280930902CDCFFE01E20FF31F819383
:1011900091932250310939832883D7CF20910702B8
:1011A00030910802232B41F4209102013091030178
:1011B0003093080220930702209100013091010131
:1011C0002115310541F42DB73EB7409104015091EE
:1011D0000501241B350BE0910702F0910802E2178C
:1011E000F307A0F42E1B3F0B2817390778F0AC014A
:1011F0004E5F5F4F2417350748F04E0F5F1F509327
:10120000080240930702819391939FCFF0E0E0E0C2
:101210009CCFCF93DF930097E9F0FC0132971382C4
:101220001282A0910902B0910A02ED0130E020E0A3
:101230001097A1F420813181820F931F2091070222
:10124000309108022817390709F061C0F0930802AD
:10125000E0930702DF91CF910895EA01CE17DF07EF
:10126000E8F54A815B819E0141155105B1F7E9011D
:10127000FB83EA8349915991C40FD51FEC17FD07F1
:1012800061F4808191810296840F951FE901998311
:101290008883828193819B838A83F0E0E0E01296C9
:1012A0008D919C9113970097B9F52D913C911197D1
:1012B000CD010296820F931F209107023091080200
:1012C0002817390739F6309751F510920A02109213
:1012D0000902B0930802A0930702BCCFD383C28354
:1012E00040815181840F951FC817D90761F44E5F63
:1012F0005F4F88819981480F591F518340838A81AC
:101300009B81938382832115310509F0B0CFF0933F
:101310000A02E09309029ECFFD01DC01C0CF1382D7
:101320001282D7CFB0E0A0E0E8E9F9E00C94F5072D
:101330008C01009751F4CB010E946D088C01C8010B
:10134000CDB7DEB7E0E10C941108FC01E60FF71F02
:101350009C0122503109E217F30708F49DC0D9011E
:10136000CD91DC911197C617D70798F0C530D105FC
:1013700030F3CE0104978617970708F3C61BD70BE7
:101380002297C193D1936D937C93CF010E94090959
:10139000D6CF5B01AC1ABD0A4C018C0E9D1EA091EC
:1013A0000902B0910A02512C412CF12CE12C10972A
:1013B00031F580910702909108028815990509F08E
:1013C0005CC04616570608F058C080910001909105
:1013D0000101009741F48DB79EB7409104015091EF
:1013E0000501841B950BE817F90708F055C0F09329
:1013F0000802E0930702F90171836083A0CF8D9109
:101400009C91119712966C90129713967C9013975B
:10141000A815B90559F56C0142E0C40ED11CCA14D7
:10142000DB0420F1AC014A195B09DA011296159729
:1014300080F06282738251834083D9016D937C93E3
:10144000E114F10471F0D7011396FC93EE93129717
:1014500076CF22968C0F9D1FF90191838083F30133
:10146000EFCFF0930A02E093090269CF48165906BC
:1014700008F42C017D01D3019ACFCB010E946D08A5
:101480007C01009749F0AE01B8010E944F0AC801E3
:101490000E940909870153CF10E000E050CFFB0103
:1014A000DC0102C001900D9241505040D8F70895E0
:1014B000FC018191861721F08823D9F79927089597
:1014C0003197CF010895FB01DC0101900D920020BE
:1014D000E1F7089510E0CDE5D0E004C0FE010E94E0
:0E14E00067082196CE35D107C9F7F894FFCFE3
:1014EE0000000B0280000203040506070000000046
:1014FE0069018900B600B6012701C50019010D0A60
:02150E000000DB
:00000001FF
